{
  "contractName": "Depositable",
  "abi": [
    {
      "payable": true,
      "stateMutability": "payable",
      "type": "fallback"
    },
    {
      "constant": true,
      "inputs": [
        {
          "name": "addr",
          "type": "address"
        }
      ],
      "name": "getOnesBalance",
      "outputs": [
        {
          "name": "",
          "type": "uint256"
        }
      ],
      "payable": false,
      "stateMutability": "view",
      "type": "function"
    },
    {
      "constant": true,
      "inputs": [],
      "name": "getMyBalance",
      "outputs": [
        {
          "name": "",
          "type": "uint256"
        }
      ],
      "payable": false,
      "stateMutability": "view",
      "type": "function"
    },
    {
      "constant": true,
      "inputs": [],
      "name": "getContractBalance",
      "outputs": [
        {
          "name": "",
          "type": "uint256"
        }
      ],
      "payable": false,
      "stateMutability": "view",
      "type": "function"
    },
    {
      "constant": true,
      "inputs": [],
      "name": "getContractAddress",
      "outputs": [
        {
          "name": "",
          "type": "address"
        }
      ],
      "payable": false,
      "stateMutability": "view",
      "type": "function"
    },
    {
      "constant": false,
      "inputs": [],
      "name": "deposit",
      "outputs": [],
      "payable": true,
      "stateMutability": "payable",
      "type": "function"
    }
  ],
  "bytecode": "0x608060405234801561001057600080fd5b5061029f806100206000396000f3fe60806040526004361061004a5760003560e01c806332a2c5d0146100545780634c738909146100ab5780636f9fb98a146100d65780637e1a380f14610101578063d0e30db014610166575b610052610170565b005b34801561006057600080fd5b506100696101be565b604051808273ffffffffffffffffffffffffffffffffffffffff1673ffffffffffffffffffffffffffffffffffffffff16815260200191505060405180910390f35b3480156100b757600080fd5b506100c06101c6565b6040518082815260200191505060405180910390f35b3480156100e257600080fd5b506100eb61020c565b6040518082815260200191505060405180910390f35b34801561010d57600080fd5b506101506004803603602081101561012457600080fd5b81019080803573ffffffffffffffffffffffffffffffffffffffff16906020019092919050505061022b565b6040518082815260200191505060405180910390f35b61016e610170565b005b346000803373ffffffffffffffffffffffffffffffffffffffff1673ffffffffffffffffffffffffffffffffffffffff16815260200190815260200160002060008282540192505081905550565b600030905090565b60008060003373ffffffffffffffffffffffffffffffffffffffff1673ffffffffffffffffffffffffffffffffffffffff16815260200190815260200160002054905090565b60003073ffffffffffffffffffffffffffffffffffffffff1631905090565b60008060008373ffffffffffffffffffffffffffffffffffffffff1673ffffffffffffffffffffffffffffffffffffffff16815260200190815260200160002054905091905056fea165627a7a72305820ff6cff9b7b7f427fc690ca289f2d7b8eb04453832914e0c7d58b26e4afe6bf310029",
  "source": "pragma solidity ^0.5.8;\n\n// Handy: https://ethereum.stackexchange.com/a/43768\ncontract Depositable {\n    mapping(address => uint256) balances;\n\n    function getOnesBalance(address addr) public view returns (uint){\n        return balances[addr];\n    }\n    function getMyBalance() public view returns (uint){\n        return balances[msg.sender];\n    }\n    function getContractBalance() public view returns (uint){\n        return address(this).balance;\n    }\n    function getContractAddress() public view returns (address){\n        return address(this);\n    }\n    function deposit() public payable {balances[msg.sender]+=msg.value;}\n    function() external payable {deposit();}\n}\n",
  "sourcePath": "/Users/madine/Dropbox/work/sponsored-web/contracts/Depositable.sol",
  "compiler": {
    "name": "solc",
    "version": "0.5.8+commit.23d335f2.Emscripten.clang"
  },
  "schemaVersion": "3.0.16",
  "updatedAt": "2019-11-05T16:28:43.902Z",
  "devdoc": {
    "methods": {}
  },
  "userdoc": {
    "methods": {}
  }
}