{
  "contractName": "SponsoredEvent",
  "abi": [
    {
      "constant": true,
      "inputs": [
        {
          "name": "",
          "type": "address"
        }
      ],
      "name": "participants",
      "outputs": [
        {
          "name": "participantName",
          "type": "string"
        },
        {
          "name": "participantAddress",
          "type": "address"
        },
        {
          "name": "completed",
          "type": "bool"
        },
        {
          "name": "finalized",
          "type": "bool"
        }
      ],
      "payable": false,
      "stateMutability": "view",
      "type": "function"
    },
    {
      "constant": true,
      "inputs": [],
      "name": "ended",
      "outputs": [
        {
          "name": "",
          "type": "bool"
        }
      ],
      "payable": false,
      "stateMutability": "view",
      "type": "function"
    },
    {
      "constant": true,
      "inputs": [],
      "name": "getContractAddress",
      "outputs": [
        {
          "name": "",
          "type": "address"
        }
      ],
      "payable": false,
      "stateMutability": "view",
      "type": "function"
    },
    {
      "constant": true,
      "inputs": [],
      "name": "participantCount",
      "outputs": [
        {
          "name": "",
          "type": "uint256"
        }
      ],
      "payable": false,
      "stateMutability": "view",
      "type": "function"
    },
    {
      "constant": true,
      "inputs": [],
      "name": "getMyBalance",
      "outputs": [
        {
          "name": "",
          "type": "uint256"
        }
      ],
      "payable": false,
      "stateMutability": "view",
      "type": "function"
    },
    {
      "constant": true,
      "inputs": [],
      "name": "closed",
      "outputs": [
        {
          "name": "",
          "type": "bool"
        }
      ],
      "payable": false,
      "stateMutability": "view",
      "type": "function"
    },
    {
      "constant": true,
      "inputs": [],
      "name": "recipient",
      "outputs": [
        {
          "name": "recipientName",
          "type": "string"
        },
        {
          "name": "recipientAddress",
          "type": "address"
        }
      ],
      "payable": false,
      "stateMutability": "view",
      "type": "function"
    },
    {
      "constant": true,
      "inputs": [],
      "name": "getContractBalance",
      "outputs": [
        {
          "name": "",
          "type": "uint256"
        }
      ],
      "payable": false,
      "stateMutability": "view",
      "type": "function"
    },
    {
      "constant": false,
      "inputs": [],
      "name": "renounceOwnership",
      "outputs": [],
      "payable": false,
      "stateMutability": "nonpayable",
      "type": "function"
    },
    {
      "constant": true,
      "inputs": [],
      "name": "recipientReceivedTotal",
      "outputs": [
        {
          "name": "",
          "type": "uint256"
        }
      ],
      "payable": false,
      "stateMutability": "view",
      "type": "function"
    },
    {
      "constant": true,
      "inputs": [
        {
          "name": "addr",
          "type": "address"
        }
      ],
      "name": "getOnesBalance",
      "outputs": [
        {
          "name": "",
          "type": "uint256"
        }
      ],
      "payable": false,
      "stateMutability": "view",
      "type": "function"
    },
    {
      "constant": true,
      "inputs": [],
      "name": "organiser",
      "outputs": [
        {
          "name": "",
          "type": "address"
        }
      ],
      "payable": false,
      "stateMutability": "view",
      "type": "function"
    },
    {
      "constant": true,
      "inputs": [],
      "name": "eventName",
      "outputs": [
        {
          "name": "",
          "type": "string"
        }
      ],
      "payable": false,
      "stateMutability": "view",
      "type": "function"
    },
    {
      "constant": true,
      "inputs": [],
      "name": "owner",
      "outputs": [
        {
          "name": "",
          "type": "address"
        }
      ],
      "payable": false,
      "stateMutability": "view",
      "type": "function"
    },
    {
      "constant": true,
      "inputs": [],
      "name": "isOwner",
      "outputs": [
        {
          "name": "",
          "type": "bool"
        }
      ],
      "payable": false,
      "stateMutability": "view",
      "type": "function"
    },
    {
      "constant": true,
      "inputs": [],
      "name": "signUpFee",
      "outputs": [
        {
          "name": "",
          "type": "uint256"
        }
      ],
      "payable": false,
      "stateMutability": "view",
      "type": "function"
    },
    {
      "constant": true,
      "inputs": [],
      "name": "cancelled",
      "outputs": [
        {
          "name": "",
          "type": "bool"
        }
      ],
      "payable": false,
      "stateMutability": "view",
      "type": "function"
    },
    {
      "constant": true,
      "inputs": [
        {
          "name": "",
          "type": "uint256"
        }
      ],
      "name": "participantsIndex",
      "outputs": [
        {
          "name": "",
          "type": "address"
        }
      ],
      "payable": false,
      "stateMutability": "view",
      "type": "function"
    },
    {
      "constant": true,
      "inputs": [
        {
          "name": "",
          "type": "uint256"
        }
      ],
      "name": "pledges",
      "outputs": [
        {
          "name": "sponsorAddress",
          "type": "address"
        },
        {
          "name": "pledgeAmount",
          "type": "uint256"
        },
        {
          "name": "participantId",
          "type": "uint256"
        },
        {
          "name": "sponsorName",
          "type": "string"
        },
        {
          "name": "paid",
          "type": "bool"
        }
      ],
      "payable": false,
      "stateMutability": "view",
      "type": "function"
    },
    {
      "constant": true,
      "inputs": [],
      "name": "pledgeCount",
      "outputs": [
        {
          "name": "",
          "type": "uint256"
        }
      ],
      "payable": false,
      "stateMutability": "view",
      "type": "function"
    },
    {
      "constant": false,
      "inputs": [],
      "name": "deposit",
      "outputs": [],
      "payable": true,
      "stateMutability": "payable",
      "type": "function"
    },
    {
      "constant": true,
      "inputs": [],
      "name": "target",
      "outputs": [
        {
          "name": "",
          "type": "uint256"
        }
      ],
      "payable": false,
      "stateMutability": "view",
      "type": "function"
    },
    {
      "constant": false,
      "inputs": [
        {
          "name": "newOwner",
          "type": "address"
        }
      ],
      "name": "transferOwnership",
      "outputs": [],
      "payable": false,
      "stateMutability": "nonpayable",
      "type": "function"
    },
    {
      "inputs": [
        {
          "name": "_eventName",
          "type": "string"
        },
        {
          "name": "_signUpFee",
          "type": "uint256"
        },
        {
          "name": "_target",
          "type": "uint256"
        },
        {
          "name": "_recipientAddress",
          "type": "address"
        },
        {
          "name": "_recipientName",
          "type": "string"
        }
      ],
      "payable": false,
      "stateMutability": "nonpayable",
      "type": "constructor"
    },
    {
      "payable": true,
      "stateMutability": "payable",
      "type": "fallback"
    },
    {
      "anonymous": false,
      "inputs": [
        {
          "indexed": false,
          "name": "recipientAddress",
          "type": "address"
        },
        {
          "indexed": false,
          "name": "recipientName",
          "type": "string"
        }
      ],
      "name": "CreateRecipient",
      "type": "event"
    },
    {
      "anonymous": false,
      "inputs": [
        {
          "indexed": false,
          "name": "eventName",
          "type": "string"
        },
        {
          "indexed": false,
          "name": "signUpFee",
          "type": "uint256"
        },
        {
          "indexed": false,
          "name": "target",
          "type": "uint256"
        }
      ],
      "name": "CreateEvent",
      "type": "event"
    },
    {
      "anonymous": false,
      "inputs": [
        {
          "indexed": false,
          "name": "addr",
          "type": "address"
        },
        {
          "indexed": false,
          "name": "value",
          "type": "uint256"
        },
        {
          "indexed": false,
          "name": "participantId",
          "type": "uint256"
        },
        {
          "indexed": false,
          "name": "participantName",
          "type": "string"
        }
      ],
      "name": "SignUpEvent",
      "type": "event"
    },
    {
      "anonymous": false,
      "inputs": [
        {
          "indexed": false,
          "name": "pledgeId",
          "type": "uint256"
        },
        {
          "indexed": false,
          "name": "sponsorAddress",
          "type": "address"
        },
        {
          "indexed": false,
          "name": "pledgeAmount",
          "type": "uint256"
        },
        {
          "indexed": false,
          "name": "balance",
          "type": "uint256"
        }
      ],
      "name": "NewPledge",
      "type": "event"
    },
    {
      "anonymous": false,
      "inputs": [
        {
          "indexed": false,
          "name": "participantId",
          "type": "uint256"
        }
      ],
      "name": "ParticipantCompletedEvent",
      "type": "event"
    },
    {
      "anonymous": false,
      "inputs": [
        {
          "indexed": false,
          "name": "addr",
          "type": "address"
        },
        {
          "indexed": false,
          "name": "pledgeAmount",
          "type": "uint256"
        }
      ],
      "name": "RecipientTransfer",
      "type": "event"
    },
    {
      "anonymous": false,
      "inputs": [
        {
          "indexed": false,
          "name": "addr",
          "type": "address"
        },
        {
          "indexed": false,
          "name": "returned",
          "type": "bool"
        },
        {
          "indexed": false,
          "name": "pledgeAmount",
          "type": "uint256"
        }
      ],
      "name": "WithdrawEvent",
      "type": "event"
    },
    {
      "anonymous": false,
      "inputs": [
        {
          "indexed": false,
          "name": "finalAmount",
          "type": "uint256"
        },
        {
          "indexed": false,
          "name": "recipientReceivedTotal",
          "type": "uint256"
        }
      ],
      "name": "Closure",
      "type": "event"
    },
    {
      "anonymous": false,
      "inputs": [],
      "name": "Cancellation",
      "type": "event"
    },
    {
      "anonymous": false,
      "inputs": [
        {
          "indexed": true,
          "name": "previousOwner",
          "type": "address"
        },
        {
          "indexed": true,
          "name": "newOwner",
          "type": "address"
        }
      ],
      "name": "OwnershipTransferred",
      "type": "event"
    },
    {
      "constant": false,
      "inputs": [
        {
          "name": "_participantName",
          "type": "string"
        }
      ],
      "name": "signUpForEvent",
      "outputs": [
        {
          "name": "",
          "type": "uint256"
        }
      ],
      "payable": true,
      "stateMutability": "payable",
      "type": "function"
    },
    {
      "constant": false,
      "inputs": [
        {
          "name": "_participantId",
          "type": "uint256"
        },
        {
          "name": "_sponsorName",
          "type": "string"
        }
      ],
      "name": "pledge",
      "outputs": [
        {
          "name": "",
          "type": "uint256"
        }
      ],
      "payable": true,
      "stateMutability": "payable",
      "type": "function"
    },
    {
      "constant": false,
      "inputs": [
        {
          "name": "_participantIds",
          "type": "address[]"
        }
      ],
      "name": "participantCompleted",
      "outputs": [],
      "payable": false,
      "stateMutability": "nonpayable",
      "type": "function"
    },
    {
      "constant": false,
      "inputs": [],
      "name": "endEvent",
      "outputs": [],
      "payable": false,
      "stateMutability": "nonpayable",
      "type": "function"
    },
    {
      "constant": false,
      "inputs": [
        {
          "name": "pledgeId",
          "type": "uint256"
        },
        {
          "name": "_returnPledge",
          "type": "bool"
        }
      ],
      "name": "sponsorReclaim",
      "outputs": [],
      "payable": false,
      "stateMutability": "nonpayable",
      "type": "function"
    },
    {
      "constant": false,
      "inputs": [],
      "name": "closeEvent",
      "outputs": [],
      "payable": false,
      "stateMutability": "nonpayable",
      "type": "function"
    },
    {
      "constant": false,
      "inputs": [],
      "name": "cancelEvent",
      "outputs": [],
      "payable": false,
      "stateMutability": "nonpayable",
      "type": "function"
    },
    {
      "constant": true,
      "inputs": [
        {
          "name": "_addr",
          "type": "address"
        }
      ],
      "name": "isRegistered",
      "outputs": [
        {
          "name": "",
          "type": "bool"
        }
      ],
      "payable": false,
      "stateMutability": "view",
      "type": "function"
    },
    {
      "constant": true,
      "inputs": [
        {
          "name": "_addr",
          "type": "address"
        }
      ],
      "name": "hasCompleted",
      "outputs": [
        {
          "name": "",
          "type": "bool"
        }
      ],
      "payable": false,
      "stateMutability": "view",
      "type": "function"
    }
  ],
  "bytecode": "0x6080604052600060085560006009556000600a60006101000a81548160ff0219169083151502179055506000600a60016101000a81548160ff0219169083151502179055506000600a60026101000a81548160ff0219169083151502179055506000600b553480156200007157600080fd5b5060405162003af538038062003af5833981018060405260a08110156200009757600080fd5b810190808051640100000000811115620000b057600080fd5b82810190506020810184811115620000c757600080fd5b8151856001820283011164010000000082111715620000e557600080fd5b505092919060200180519060200190929190805190602001909291908051906020019092919080516401000000008111156200012057600080fd5b828101905060208101848111156200013757600080fd5b81518560018202830111640100000000821117156200015557600080fd5b50509291905050506200016d620004b360201b60201c565b6000806101000a81548173ffffffffffffffffffffffffffffffffffffffff021916908373ffffffffffffffffffffffffffffffffffffffff1602179055506000809054906101000a900473ffffffffffffffffffffffffffffffffffffffff1673ffffffffffffffffffffffffffffffffffffffff16600073ffffffffffffffffffffffffffffffffffffffff167f8be0079c531659141344cd1fd0a4f28419497f9722a3daafe3b4186f6b6457e060405160405180910390a333600560006101000a81548173ffffffffffffffffffffffffffffffffffffffff021916908373ffffffffffffffffffffffffffffffffffffffff160217905550846002908051906020019062000281929190620004bb565b50836003819055508260048190555060405180604001604052808281526020018373ffffffffffffffffffffffffffffffffffffffff1681525060066000820151816000019080519060200190620002db92919062000542565b5060208201518160010160006101000a81548173ffffffffffffffffffffffffffffffffffffffff021916908373ffffffffffffffffffffffffffffffffffffffff1602179055509050507ffa862726afc8fb0cd62c8f83354cffd9d7e3bc0e6a34f8d772ba4e81329500768282604051808373ffffffffffffffffffffffffffffffffffffffff1673ffffffffffffffffffffffffffffffffffffffff16815260200180602001828103825283818151815260200191508051906020019080838360005b83811015620003bd578082015181840152602081019050620003a0565b50505050905090810190601f168015620003eb5780820380516001836020036101000a031916815260200191505b50935050505060405180910390a17f163f41af9c5c7295403c3dd502ba99d4d556bde41f44014028640a9fd55b889d8585856040518080602001848152602001838152602001828103825285818151815260200191508051906020019080838360005b838110156200046b5780820151818401526020810190506200044e565b50505050905090810190601f168015620004995780820380516001836020036101000a031916815260200191505b5094505050505060405180910390a15050505050620005f1565b600033905090565b828054600181600116156101000203166002900490600052602060002090601f016020900481019282601f10620004fe57805160ff19168380011785556200052f565b828001600101855582156200052f579182015b828111156200052e57825182559160200191906001019062000511565b5b5090506200053e9190620005c9565b5090565b828054600181600116156101000203166002900490600052602060002090601f016020900481019282601f106200058557805160ff1916838001178555620005b6565b82800160010185558215620005b6579182015b82811115620005b557825182559160200191906001019062000598565b5b509050620005c59190620005c9565b5090565b620005ee91905b80821115620005ea576000816000905550600101620005d0565b5090565b90565b6134f480620006016000396000f3fe6080604052600436106101e35760003560e01c80638043c9c011610102578063c3c5a54711610095578063e532a10e11610064578063e532a10e14610b66578063e73bee7f14610bad578063f2fde38b14610c72578063fb6c953714610cc3576101e3565b8063c3c5a54714610a9d578063c6d6c18314610b06578063d0e30db014610b31578063d4b8399214610b3b576101e3565b80639278b587116100d15780639278b587146108c85780639a82a09a146108f35780639b25cacb14610922578063ac1240811461099d576101e3565b80638043c9c01461079b57806386ec61771461082b5780638da5cb5b146108425780638f32d59b14610899576101e3565b80634c7389091161017a578063715018a611610149578063715018a61461069d578063746a1e82146106b45780637e1a380f146106df5780637e53748614610744576101e3565b80634c73890914610555578063597e1fb51461058057806366d003ac146105af5780636f9fb98a14610672576101e3565b806312fa6feb116101b657806312fa6feb1461043b57806331f292501461046a57806332a2c5d0146104d3578063362f04c01461052a576101e3565b806303dc5326146101ed57806309e69ede146102045780630da1cdf31461031757806310d26d44146103ae575b6101eb610cda565b005b3480156101f957600080fd5b50610202610d29565b005b34801561021057600080fd5b506102536004803603602081101561022757600080fd5b81019080803573ffffffffffffffffffffffffffffffffffffffff169060200190929190505050610f8f565b60405180806020018573ffffffffffffffffffffffffffffffffffffffff1673ffffffffffffffffffffffffffffffffffffffff1681526020018415151515815260200183151515158152602001828103825286818151815260200191508051906020019080838360005b838110156102d95780820151818401526020810190506102be565b50505050905090810190601f1680156103065780820380516001836020036101000a031916815260200191505b509550505050505060405180910390f35b6103986004803603604081101561032d57600080fd5b81019080803590602001909291908035906020019064010000000081111561035457600080fd5b82018360208201111561036657600080fd5b8035906020019184600183028401116401000000008311171561038857600080fd5b9091929391929390505050611091565b6040518082815260200191505060405180910390f35b610425600480360360208110156103c457600080fd5b81019080803590602001906401000000008111156103e157600080fd5b8201836020820111156103f357600080fd5b8035906020019184600183028401116401000000008311171561041557600080fd5b9091929391929390505050611305565b6040518082815260200191505060405180910390f35b34801561044757600080fd5b506104506117cf565b604051808215151515815260200191505060405180910390f35b34801561047657600080fd5b506104b96004803603602081101561048d57600080fd5b81019080803573ffffffffffffffffffffffffffffffffffffffff1690602001909291905050506117e2565b604051808215151515815260200191505060405180910390f35b3480156104df57600080fd5b506104e86118fb565b604051808273ffffffffffffffffffffffffffffffffffffffff1673ffffffffffffffffffffffffffffffffffffffff16815260200191505060405180910390f35b34801561053657600080fd5b5061053f611903565b6040518082815260200191505060405180910390f35b34801561056157600080fd5b5061056a611909565b6040518082815260200191505060405180910390f35b34801561058c57600080fd5b50610595611950565b604051808215151515815260200191505060405180910390f35b3480156105bb57600080fd5b506105c4611963565b60405180806020018373ffffffffffffffffffffffffffffffffffffffff1673ffffffffffffffffffffffffffffffffffffffff168152602001828103825284818151815260200191508051906020019080838360005b8381101561063657808201518184015260208101905061061b565b50505050905090810190601f1680156106635780820380516001836020036101000a031916815260200191505b50935050505060405180910390f35b34801561067e57600080fd5b50610687611a2d565b6040518082815260200191505060405180910390f35b3480156106a957600080fd5b506106b2611a4c565b005b3480156106c057600080fd5b506106c9611b85565b6040518082815260200191505060405180910390f35b3480156106eb57600080fd5b5061072e6004803603602081101561070257600080fd5b81019080803573ffffffffffffffffffffffffffffffffffffffff169060200190929190505050611b8b565b6040518082815260200191505060405180910390f35b34801561075057600080fd5b50610759611bd4565b604051808273ffffffffffffffffffffffffffffffffffffffff1673ffffffffffffffffffffffffffffffffffffffff16815260200191505060405180910390f35b3480156107a757600080fd5b506107b0611bfa565b6040518080602001828103825283818151815260200191508051906020019080838360005b838110156107f05780820151818401526020810190506107d5565b50505050905090810190601f16801561081d5780820380516001836020036101000a031916815260200191505b509250505060405180910390f35b34801561083757600080fd5b50610840611c98565b005b34801561084e57600080fd5b50610857611dd3565b604051808273ffffffffffffffffffffffffffffffffffffffff1673ffffffffffffffffffffffffffffffffffffffff16815260200191505060405180910390f35b3480156108a557600080fd5b506108ae611dfc565b604051808215151515815260200191505060405180910390f35b3480156108d457600080fd5b506108dd611e5a565b6040518082815260200191505060405180910390f35b3480156108ff57600080fd5b50610908611e60565b604051808215151515815260200191505060405180910390f35b34801561092e57600080fd5b5061095b6004803603602081101561094557600080fd5b8101908080359060200190929190505050611e73565b604051808273ffffffffffffffffffffffffffffffffffffffff1673ffffffffffffffffffffffffffffffffffffffff16815260200191505060405180910390f35b3480156109a957600080fd5b506109d6600480360360208110156109c057600080fd5b8101908080359060200190929190505050611ea6565b604051808673ffffffffffffffffffffffffffffffffffffffff1673ffffffffffffffffffffffffffffffffffffffff1681526020018581526020018481526020018060200183151515158152602001828103825284818151815260200191508051906020019080838360005b83811015610a5e578082015181840152602081019050610a43565b50505050905090810190601f168015610a8b5780820380516001836020036101000a031916815260200191505b50965050505050505060405180910390f35b348015610aa957600080fd5b50610aec60048036036020811015610ac057600080fd5b81019080803573ffffffffffffffffffffffffffffffffffffffff169060200190929190505050611fa1565b604051808215151515815260200191505060405180910390f35b348015610b1257600080fd5b50610b1b61203c565b6040518082815260200191505060405180910390f35b610b39610cda565b005b348015610b4757600080fd5b50610b50612042565b6040518082815260200191505060405180910390f35b348015610b7257600080fd5b50610bab60048036036040811015610b8957600080fd5b8101908080359060200190929190803515159060200190929190505050612048565b005b348015610bb957600080fd5b50610c7060048036036020811015610bd057600080fd5b8101908080359060200190640100000000811115610bed57600080fd5b820183602082011115610bff57600080fd5b80359060200191846020830284011164010000000083111715610c2157600080fd5b919080806020026020016040519081016040528093929190818152602001838360200280828437600081840152601f19601f820116905080830192505050505050509192919290505050612651565b005b348015610c7e57600080fd5b50610cc160048036036020811015610c9557600080fd5b81019080803573ffffffffffffffffffffffffffffffffffffffff169060200190929190505050612a6a565b005b348015610ccf57600080fd5b50610cd8612af0565b005b34600160003373ffffffffffffffffffffffffffffffffffffffff1673ffffffffffffffffffffffffffffffffffffffff16815260200190815260200160002060008282540192505081905550565b610d31611dfc565b610da3576040517f08c379a00000000000000000000000000000000000000000000000000000000081526004018080602001828103825260208152602001807f4f776e61626c653a2063616c6c6572206973206e6f7420746865206f776e657281525060200191505060405180910390fd5b600a60009054906101000a900460ff16610e25576040517f08c379a00000000000000000000000000000000000000000000000000000000081526004018080602001828103825260138152602001807f6576656e7420686173206e6f7420656e6465640000000000000000000000000081525060200191505060405180910390fd5b600a60019054906101000a900460ff1615610ea8576040517f08c379a00000000000000000000000000000000000000000000000000000000081526004018080602001828103825260118152602001807f6576656e74206973206e6f74206f70656e00000000000000000000000000000081525060200191505060405180910390fd5b6000610eb2611a2d565b9050600660010160009054906101000a900473ffffffffffffffffffffffffffffffffffffffff1673ffffffffffffffffffffffffffffffffffffffff166108fc829081150290604051600060405180830381858888f19350505050158015610f1f573d6000803e3d6000fd5b5080600b600082825401925050819055507f0a906247182825c89d474ccc7516a7442c44329474f81836038a40bf477f72aa81600b54604051808381526020018281526020019250505060405180910390a16001600a60016101000a81548160ff02191690831515021790555050565b600d602052806000526040600020600091509050806000018054600181600116156101000203166002900480601f01602080910402602001604051908101604052809291908181526020018280546001816001161561010002031660029004801561103b5780601f106110105761010080835404028352916020019161103b565b820191906000526020600020905b81548152906001019060200180831161101e57829003601f168201915b5050505050908060010160009054906101000a900473ffffffffffffffffffffffffffffffffffffffff16908060010160149054906101000a900460ff16908060010160159054906101000a900460ff16905084565b6000600a60009054906101000a900460ff161580156110bd5750600a60019054906101000a900460ff16155b61112f576040517f08c379a00000000000000000000000000000000000000000000000000000000081526004018080602001828103825260138152602001807f6576656e74206973206e6f74206163746976650000000000000000000000000081525060200191505060405180910390fd5b6040518060a001604052803373ffffffffffffffffffffffffffffffffffffffff16815260200134815260200185815260200184848080601f016020809104026020016040519081016040528093929190818152602001838380828437600081840152601f19601f82011690508083019250505050505050815260200160001515815250600c6000600954815260200190815260200160002060008201518160000160006101000a81548173ffffffffffffffffffffffffffffffffffffffff021916908373ffffffffffffffffffffffffffffffffffffffff1602179055506020820151816001015560408201518160020155606082015181600301908051906020019061123f929190613318565b5060808201518160040160006101000a81548160ff0219169083151502179055509050507f2ca6d0fe78b897f0240e2fc10d119e844467845f8c680fb9cfd06e37c89474976009543334611291611a2d565b604051808581526020018473ffffffffffffffffffffffffffffffffffffffff1673ffffffffffffffffffffffffffffffffffffffff16815260200183815260200182815260200194505050505060405180910390a160096000815480929190600101919050555060095490509392505050565b6000600a60009054906101000a900460ff161580156113315750600a60019054906101000a900460ff16155b6113a3576040517f08c379a00000000000000000000000000000000000000000000000000000000081526004018080602001828103825260138152602001807f6576656e74206973206e6f74206163746976650000000000000000000000000081525060200191505060405180910390fd5b60035434101561141b576040517f08c379a000000000000000000000000000000000000000000000000000000000815260040180806020018281038252601f8152602001807f6e6f7420656e6f75676820746f20636f766572207369676e2d7570206665650081525060200191505060405180910390fd5b3073ffffffffffffffffffffffffffffffffffffffff1663c3c5a547336040518263ffffffff1660e01b8152600401808273ffffffffffffffffffffffffffffffffffffffff1673ffffffffffffffffffffffffffffffffffffffff16815260200191505060206040518083038186803b15801561149857600080fd5b505afa1580156114ac573d6000803e3d6000fd5b505050506040513d60208110156114c257600080fd5b810190808051906020019092919050505015611546576040517f08c379a00000000000000000000000000000000000000000000000000000000081526004018080602001828103825260128152602001807f616c72656164792072656769737465726564000000000000000000000000000081525060200191505060405180910390fd5b61154e610cda565b33600e6000600854815260200190815260200160002060006101000a81548173ffffffffffffffffffffffffffffffffffffffff021916908373ffffffffffffffffffffffffffffffffffffffff160217905550604051806080016040528084848080601f016020809104026020016040519081016040528093929190818152602001838380828437600081840152601f19601f8201169050808301925050505050505081526020013373ffffffffffffffffffffffffffffffffffffffff16815260200160001515815260200160001515815250600d60003373ffffffffffffffffffffffffffffffffffffffff1673ffffffffffffffffffffffffffffffffffffffff168152602001908152602001600020600082015181600001908051906020019061167e929190613318565b5060208201518160010160006101000a81548173ffffffffffffffffffffffffffffffffffffffff021916908373ffffffffffffffffffffffffffffffffffffffff16021790555060408201518160010160146101000a81548160ff02191690831515021790555060608201518160010160156101000a81548160ff0219169083151502179055509050507f5a193c25f2fd619738fb15f66913a43e708ff0fefd1160ea9ef049954de817d933346008548686604051808673ffffffffffffffffffffffffffffffffffffffff1673ffffffffffffffffffffffffffffffffffffffff168152602001858152602001848152602001806020018281038252848482818152602001925080828437600081840152601f19601f820116905080830192505050965050505050505060405180910390a1600860008154809291906001019190505550600854905092915050565b600a60009054906101000a900460ff1681565b60003073ffffffffffffffffffffffffffffffffffffffff1663c3c5a547836040518263ffffffff1660e01b8152600401808273ffffffffffffffffffffffffffffffffffffffff1673ffffffffffffffffffffffffffffffffffffffff16815260200191505060206040518083038186803b15801561186157600080fd5b505afa158015611875573d6000803e3d6000fd5b505050506040513d602081101561188b57600080fd5b810190808051906020019092919050505080156118f45750600d60008373ffffffffffffffffffffffffffffffffffffffff1673ffffffffffffffffffffffffffffffffffffffff16815260200190815260200160002060010160149054906101000a900460ff165b9050919050565b600030905090565b60085481565b6000600160003373ffffffffffffffffffffffffffffffffffffffff1673ffffffffffffffffffffffffffffffffffffffff16815260200190815260200160002054905090565b600a60019054906101000a900460ff1681565b6006806000018054600181600116156101000203166002900480601f0160208091040260200160405190810160405280929190818152602001828054600181600116156101000203166002900480156119fd5780601f106119d2576101008083540402835291602001916119fd565b820191906000526020600020905b8154815290600101906020018083116119e057829003601f168201915b5050505050908060010160009054906101000a900473ffffffffffffffffffffffffffffffffffffffff16905082565b60003073ffffffffffffffffffffffffffffffffffffffff1631905090565b611a54611dfc565b611ac6576040517f08c379a00000000000000000000000000000000000000000000000000000000081526004018080602001828103825260208152602001807f4f776e61626c653a2063616c6c6572206973206e6f7420746865206f776e657281525060200191505060405180910390fd5b600073ffffffffffffffffffffffffffffffffffffffff166000809054906101000a900473ffffffffffffffffffffffffffffffffffffffff1673ffffffffffffffffffffffffffffffffffffffff167f8be0079c531659141344cd1fd0a4f28419497f9722a3daafe3b4186f6b6457e060405160405180910390a360008060006101000a81548173ffffffffffffffffffffffffffffffffffffffff021916908373ffffffffffffffffffffffffffffffffffffffff160217905550565b600b5481565b6000600160008373ffffffffffffffffffffffffffffffffffffffff1673ffffffffffffffffffffffffffffffffffffffff168152602001908152602001600020549050919050565b600560009054906101000a900473ffffffffffffffffffffffffffffffffffffffff1681565b60028054600181600116156101000203166002900480601f016020809104026020016040519081016040528092919081815260200182805460018160011615610100020316600290048015611c905780601f10611c6557610100808354040283529160200191611c90565b820191906000526020600020905b815481529060010190602001808311611c7357829003601f168201915b505050505081565b611ca0611dfc565b611d12576040517f08c379a00000000000000000000000000000000000000000000000000000000081526004018080602001828103825260208152602001807f4f776e61626c653a2063616c6c6572206973206e6f7420746865206f776e657281525060200191505060405180910390fd5b600a60009054906101000a900460ff16158015611d3c5750600a60019054906101000a900460ff16155b611dae576040517f08c379a00000000000000000000000000000000000000000000000000000000081526004018080602001828103825260138152602001807f6576656e74206973206e6f74206163746976650000000000000000000000000081525060200191505060405180910390fd5b611db6612f3f565b6001600a60006101000a81548160ff021916908315150217905550565b60008060009054906101000a900473ffffffffffffffffffffffffffffffffffffffff16905090565b60008060009054906101000a900473ffffffffffffffffffffffffffffffffffffffff1673ffffffffffffffffffffffffffffffffffffffff16611e3e6131cc565b73ffffffffffffffffffffffffffffffffffffffff1614905090565b60035481565b600a60029054906101000a900460ff1681565b600e6020528060005260406000206000915054906101000a900473ffffffffffffffffffffffffffffffffffffffff1681565b600c6020528060005260406000206000915090508060000160009054906101000a900473ffffffffffffffffffffffffffffffffffffffff1690806001015490806002015490806003018054600181600116156101000203166002900480601f016020809104026020016040519081016040528092919081815260200182805460018160011615610100020316600290048015611f845780601f10611f5957610100808354040283529160200191611f84565b820191906000526020600020905b815481529060010190602001808311611f6757829003601f168201915b5050505050908060040160009054906101000a900460ff16905085565b60008073ffffffffffffffffffffffffffffffffffffffff16600d60008473ffffffffffffffffffffffffffffffffffffffff1673ffffffffffffffffffffffffffffffffffffffff16815260200190815260200160002060010160009054906101000a900473ffffffffffffffffffffffffffffffffffffffff1673ffffffffffffffffffffffffffffffffffffffff1614159050919050565b60095481565b60045481565b600a60009054906101000a900460ff166120ca576040517f08c379a00000000000000000000000000000000000000000000000000000000081526004018080602001828103825260138152602001807f6576656e7420686173206e6f7420656e6465640000000000000000000000000081525060200191505060405180910390fd5b600a60019054906101000a900460ff161561214d576040517f08c379a00000000000000000000000000000000000000000000000000000000081526004018080602001828103825260118152602001807f6576656e74206973206e6f74206f70656e00000000000000000000000000000081525060200191505060405180910390fd5b6000600c600084815260200190815260200160002090503373ffffffffffffffffffffffffffffffffffffffff168160000160009054906101000a900473ffffffffffffffffffffffffffffffffffffffff1673ffffffffffffffffffffffffffffffffffffffff161461220c576040517f08c379a00000000000000000000000000000000000000000000000000000000081526004018080602001828103825260358152602001806134476035913960400191505060405180910390fd5b8060040160009054906101000a900460ff1615612291576040517f08c379a000000000000000000000000000000000000000000000000000000000815260040180806020018281038252600c8152602001807f616c72656164792070616964000000000000000000000000000000000000000081525060200191505060405180910390fd5b6000600e60008360020154815260200190815260200160002060009054906101000a900473ffffffffffffffffffffffffffffffffffffffff1690506122d5613398565b600d60008373ffffffffffffffffffffffffffffffffffffffff1673ffffffffffffffffffffffffffffffffffffffff168152602001908152602001600020604051806080016040529081600082018054600181600116156101000203166002900480601f0160208091040260200160405190810160405280929190818152602001828054600181600116156101000203166002900480156123b85780601f1061238d576101008083540402835291602001916123b8565b820191906000526020600020905b81548152906001019060200180831161239b57829003601f168201915b505050505081526020016001820160009054906101000a900473ffffffffffffffffffffffffffffffffffffffff1673ffffffffffffffffffffffffffffffffffffffff1673ffffffffffffffffffffffffffffffffffffffff1681526020016001820160149054906101000a900460ff161515151581526020016001820160159054906101000a900460ff16151515158152505090508060400151156124c7576040517f08c379a000000000000000000000000000000000000000000000000000000000815260040180806020018281038252601c8152602001807f7061727469636970616e7420646964206e6f7420636f6d706c6574650000000081525060200191505060405180910390fd5b60018360040160006101000a81548160ff021916908315150217905550831561255e578260000160009054906101000a900473ffffffffffffffffffffffffffffffffffffffff1673ffffffffffffffffffffffffffffffffffffffff166108fc84600101549081150290604051600060405180830381858888f19350505050158015612558573d6000803e3d6000fd5b506125cf565b600660010160009054906101000a900473ffffffffffffffffffffffffffffffffffffffff1673ffffffffffffffffffffffffffffffffffffffff166108fc84600101549081150290604051600060405180830381858888f193505050501580156125cd573d6000803e3d6000fd5b505b7f27edbb5596ed098f44179d066c755baceb326859d8789af85bf80f0d9cd24c3533858560010154604051808473ffffffffffffffffffffffffffffffffffffffff1673ffffffffffffffffffffffffffffffffffffffff16815260200183151515158152602001828152602001935050505060405180910390a15050505050565b612659611dfc565b6126cb576040517f08c379a00000000000000000000000000000000000000000000000000000000081526004018080602001828103825260208152602001807f4f776e61626c653a2063616c6c6572206973206e6f7420746865206f776e657281525060200191505060405180910390fd5b600a60009054906101000a900460ff161580156126f55750600a60019054906101000a900460ff16155b612767576040517f08c379a00000000000000000000000000000000000000000000000000000000081526004018080602001828103825260138152602001807f6576656e74206973206e6f74206163746976650000000000000000000000000081525060200191505060405180910390fd5b60008090505b8151811015612a6657600082828151811061278457fe5b602002602001015190503073ffffffffffffffffffffffffffffffffffffffff1663c3c5a547826040518263ffffffff1660e01b8152600401808273ffffffffffffffffffffffffffffffffffffffff1673ffffffffffffffffffffffffffffffffffffffff16815260200191505060206040518083038186803b15801561280b57600080fd5b505afa15801561281f573d6000803e3d6000fd5b505050506040513d602081101561283557600080fd5b81019080805190602001909291905050506128b8576040517f08c379a000000000000000000000000000000000000000000000000000000000815260040180806020018281038252601c8152602001807f6163636f756e74206973206e6f742061207061727469636970616e740000000081525060200191505060405180910390fd5b3073ffffffffffffffffffffffffffffffffffffffff166331f29250826040518263ffffffff1660e01b8152600401808273ffffffffffffffffffffffffffffffffffffffff1673ffffffffffffffffffffffffffffffffffffffff16815260200191505060206040518083038186803b15801561293557600080fd5b505afa158015612949573d6000803e3d6000fd5b505050506040513d602081101561295f57600080fd5b8101908080519060200190929190505050156129c6576040517f08c379a00000000000000000000000000000000000000000000000000000000081526004018080602001828103825260278152602001806134a26027913960400191505060405180910390fd5b6001600d60008373ffffffffffffffffffffffffffffffffffffffff1673ffffffffffffffffffffffffffffffffffffffff16815260200190815260200160002060010160146101000a81548160ff0219169083151502179055507f1add32da3c43c88ba2ddba0dbd5b255c43be68c4e4cd97779e33650c75865596826040518082815260200191505060405180910390a150808060010191505061276d565b5050565b612a72611dfc565b612ae4576040517f08c379a00000000000000000000000000000000000000000000000000000000081526004018080602001828103825260208152602001807f4f776e61626c653a2063616c6c6572206973206e6f7420746865206f776e657281525060200191505060405180910390fd5b612aed816131d4565b50565b612af8611dfc565b612b6a576040517f08c379a00000000000000000000000000000000000000000000000000000000081526004018080602001828103825260208152602001807f4f776e61626c653a2063616c6c6572206973206e6f7420746865206f776e657281525060200191505060405180910390fd5b600a60009054906101000a900460ff16158015612b945750600a60019054906101000a900460ff16155b612c06576040517f08c379a00000000000000000000000000000000000000000000000000000000081526004018080602001828103825260138152602001807f6576656e74206973206e6f74206163746976650000000000000000000000000081525060200191505060405180910390fd5b6001600a60006101000a81548160ff0219169083151502179055506001600a60026101000a81548160ff02191690831515021790555060008090505b600954811015612e7057612c546133da565b600c60008381526020019081526020016000206040518060a00160405290816000820160009054906101000a900473ffffffffffffffffffffffffffffffffffffffff1673ffffffffffffffffffffffffffffffffffffffff1673ffffffffffffffffffffffffffffffffffffffff1681526020016001820154815260200160028201548152602001600382018054600181600116156101000203166002900480601f016020809104026020016040519081016040528092919081815260200182805460018160011615610100020316600290048015612d755780601f10612d4a57610100808354040283529160200191612d75565b820191906000526020600020905b815481529060010190602001808311612d5857829003601f168201915b505050505081526020016004820160009054906101000a900460ff1615151515815250509050806080015115612e13576040517f08c379a000000000000000000000000000000000000000000000000000000000815260040180806020018281038252600c8152602001807f616c72656164792070616964000000000000000000000000000000000000000081525060200191505060405180910390fd5b806000015173ffffffffffffffffffffffffffffffffffffffff166108fc82602001519081150290604051600060405180830381858888f19350505050158015612e61573d6000803e3d6000fd5b50508080600101915050612c42565b5060008090505b600854811015612f10576000600e600083815260200190815260200160002060009054906101000a900473ffffffffffffffffffffffffffffffffffffffff1690508073ffffffffffffffffffffffffffffffffffffffff166108fc6003549081150290604051600060405180830381858888f19350505050158015612f01573d6000803e3d6000fd5b50508080600101915050612e77565b507f4a19036f5b4d75256c1c24150a8254bd3c2bdb1eaeeec4523e927f0ab1cdd05460405160405180910390a1565b600080905060008090505b6009548110156130b1576000600c600083815260200190815260200160002090508060040160009054906101000a900460ff166130a3576000600e60008360020154815260200190815260200160002060009054906101000a900473ffffffffffffffffffffffffffffffffffffffff1690503073ffffffffffffffffffffffffffffffffffffffff166331f29250826040518263ffffffff1660e01b8152600401808273ffffffffffffffffffffffffffffffffffffffff1673ffffffffffffffffffffffffffffffffffffffff16815260200191505060206040518083038186803b15801561303a57600080fd5b505afa15801561304e573d6000803e3d6000fd5b505050506040513d602081101561306457600080fd5b8101908080519060200190929190505050156130a15781600101548401935060018260040160006101000a81548160ff0219169083151502179055505b505b508080600101915050612f4a565b506003546008540281019050600660010160009054906101000a900473ffffffffffffffffffffffffffffffffffffffff1673ffffffffffffffffffffffffffffffffffffffff166108fc829081150290604051600060405180830381858888f19350505050158015613128573d6000803e3d6000fd5b5080600b600082825401925050819055507f5172220025131fa3316c5a929029a0ca17b47343342ae52782f97a25744549af600660010160009054906101000a900473ffffffffffffffffffffffffffffffffffffffff1682604051808373ffffffffffffffffffffffffffffffffffffffff1673ffffffffffffffffffffffffffffffffffffffff1681526020018281526020019250505060405180910390a150565b600033905090565b600073ffffffffffffffffffffffffffffffffffffffff168173ffffffffffffffffffffffffffffffffffffffff16141561325a576040517f08c379a000000000000000000000000000000000000000000000000000000000815260040180806020018281038252602681526020018061347c6026913960400191505060405180910390fd5b8073ffffffffffffffffffffffffffffffffffffffff166000809054906101000a900473ffffffffffffffffffffffffffffffffffffffff1673ffffffffffffffffffffffffffffffffffffffff167f8be0079c531659141344cd1fd0a4f28419497f9722a3daafe3b4186f6b6457e060405160405180910390a3806000806101000a81548173ffffffffffffffffffffffffffffffffffffffff021916908373ffffffffffffffffffffffffffffffffffffffff16021790555050565b828054600181600116156101000203166002900490600052602060002090601f016020900481019282601f1061335957805160ff1916838001178555613387565b82800160010185558215613387579182015b8281111561338657825182559160200191906001019061336b565b5b5090506133949190613421565b5090565b604051806080016040528060608152602001600073ffffffffffffffffffffffffffffffffffffffff1681526020016000151581526020016000151581525090565b6040518060a00160405280600073ffffffffffffffffffffffffffffffffffffffff1681526020016000815260200160008152602001606081526020016000151581525090565b61344391905b8082111561343f576000816000905550600101613427565b5090565b9056fe706c65646765732063616e206f6e6c79206265207265636c61696d656420627920746865206f726967696e616c2073706f6e736f724f776e61626c653a206e6577206f776e657220697320746865207a65726f20616464726573736163636f756e742068617320616c726561647920636f6d706c6574656420746865206576656e74a165627a7a723058209aa0bc70d767909c35fc65747801eaface81fea6592f80f01005e4a5b7118fc40029",
  "source": "/**\n * @title SponsoredEvent\n * @author Simon Madine\n * @notice\n */\n\npragma solidity ^0.5.8;\n\nimport \"./Depositable.sol\";\nimport \"../node_modules/openzeppelin-solidity/contracts/ownership/Ownable.sol\";\n\n\n/** @title SponsoredEvent */\ncontract SponsoredEvent is Ownable, Depositable {\n\n  string public eventName;\n  uint256 public signUpFee;\n  uint256 public target;\n  address public organiser;\n  Recipient public recipient;\n  uint public participantCount = 0;\n\n  // The number of pledges\n  uint public pledgeCount = 0;\n\n  // Whether the event has finished\n  bool public ended = false;\n\n  // Whether this contract is finished\n  bool public closed = false;\n\n  bool public cancelled = false;\n\n  // Thie total amount transferred to the recipient\n  uint256 public recipientReceivedTotal = 0;\n\n  struct Recipient {\n    string recipientName;\n    address payable recipientAddress;\n  }\n\n  struct Pledge {\n    address payable sponsorAddress;\n    uint256 pledgeAmount;\n    uint participantId;\n    string sponsorName;\n    bool paid;\n  }\n\n  struct Participant {\n    string participantName;\n    address participantAddress;\n    bool completed;\n    bool finalized;\n  }\n\n  // Events\n  event CreateRecipient(address recipientAddress, string recipientName);\n  event CreateEvent(string eventName, uint256 signUpFee, uint256 target);\n  event SignUpEvent(address addr, uint256 value, uint participantId, string participantName);\n  event NewPledge(uint pledgeId, address sponsorAddress, uint256 pledgeAmount, uint256 balance);\n  event ParticipantCompletedEvent(uint participantId);\n  event RecipientTransfer(address addr, uint256 pledgeAmount);\n  event WithdrawEvent(address addr, bool returned, uint256 pledgeAmount);\n  event Closure(uint256 finalAmount, uint256 recipientReceivedTotal);\n  event Cancellation();\n\n  // Maintain list of all sponsors so they can be refunded if the event is cancelled\n  mapping(uint => Pledge) public pledges;\n\n  // Participant[] public participants;\n  mapping(address => Participant) public participants;\n  mapping(uint => address payable) public participantsIndex;\n\n  /* Modifiers */\n  modifier onlyActive {\n    require(!ended && !closed, \"event is not active\");\n    _;\n  }\n\n  modifier onlyEnded {\n    require(ended, \"event has not ended\");\n    _;\n  }\n\n  modifier onlyUnclosed {\n    require(!closed, \"event is not open\");\n    _;\n  }\n\n  /**\n   * @notice Creates a SponsoredEvent contract\n   *\n   * Each SponsoredEvent has:\n   *\n   *  - An organiser\n   *  - A recipient\n   *\n   * @param _eventName Public name of the Sponsored Event\n   * @param _signUpFee Fee paid by the participants to join\n   * @param _target Fundraising target\n   * @param _recipientAddress where the money goes at the end\n   * @param _recipientName Public name of the Recipient of the funds\n   */\n  constructor(string memory _eventName, uint256 _signUpFee, uint256 _target, address payable _recipientAddress, string memory _recipientName) \n    public {\n    // Each event has a single organiser\n    organiser = msg.sender;\n\n    eventName = _eventName;\n    signUpFee = _signUpFee;\n    target = _target;\n\n    // Each event has a single recipient\n    recipient = Recipient(_recipientName, _recipientAddress);\n    emit CreateRecipient(_recipientAddress, _recipientName);\n    emit CreateEvent(_eventName, _signUpFee, _target);\n  }\n\n  /**\n   * @notice Join an event by providing a name and transferring\n   * the minimum sign-up fee\n   *\n   * @param _participantName Public name of the event participant\n   */\n  function signUpForEvent(string calldata _participantName) \n    external\n    payable\n    onlyActive\n    returns(uint) {\n\n    // Are they sending enough to cover the sign-up fee?\n    require(msg.value >= signUpFee, \"not enough to cover sign-up fee\");\n\n    // Continue only if the sender is not already registered\n    require(!this.isRegistered(msg.sender), \"already registered\");\n\n    // Transfer the sign-up fee from the participant to the event\n    deposit();\n\n    // Create participant lookups\n    participantsIndex[participantCount] = msg.sender;\n    participants[msg.sender] = Participant(_participantName, msg.sender, false, false);\n\n    emit SignUpEvent(msg.sender, msg.value, participantCount, _participantName);\n\n    // Increase the number of participants registered for this event\n    participantCount++;\n\n    // return the number of people registered\n    return participantCount;\n  }\n\n  /**\n   * @notice Transfer money from the sponsor to the contract\n   *\n   * @param _participantId Index of the participant in the participantIndex\n   * @param _sponsorName Public name of the sponsor\n   */\n  function pledge(uint _participantId, string calldata _sponsorName)\n    external\n    onlyActive\n    payable\n    returns (uint) {\n\n    // Add a pledge to this SponsoredEvent's pledge list\n    pledges[pledgeCount] = Pledge(msg.sender, msg.value, _participantId, _sponsorName, false);\n\n    emit NewPledge(pledgeCount, msg.sender, msg.value, getContractBalance());\n\n    // Increase the number of pledges\n    pledgeCount++;\n\n    return pledgeCount;\n  }\n\n  /**\n   * @notice Mark the participant as having completed the event\n   *\n   * **NOTE: This version doesn't allow partial completion**\n   *\n   *  * modifier: `onlyOwner` Only the organiser of this event may call this\n   *  * modifier: `onlyActive` Only events that have not ended\n   *\n   * @param _participantIds Array of participants who have completed the event\n   */\n  function participantCompleted(address[] memory _participantIds) \n    public\n    onlyOwner\n    onlyActive {\n    for (uint i = 0; i < _participantIds.length; i++) {\n      address _addr = _participantIds[i];\n      require(this.isRegistered(_addr), \"account is not a participant\");\n      require(!this.hasCompleted(_addr), \"account has already completed the event\");\n      participants[_addr].completed = true;\n      emit ParticipantCompletedEvent(i);\n    }\n  }\n\n  /**\n   * @notice End the event\n   *\n   *  * Transfer valid funds and sign-up fees to recipient\n   *  * Mark this event as ended\n   *\n   *  * modifier: `onlyOwner` Only the organiser of this event may call this\n   *  * modifier: `onlyActive` Only events that have not ended\n   */\n  function endEvent() external onlyOwner onlyActive {\n    transferToRecipient();\n    ended = true;\n  }\n\n  /**\n   * @notice Transfer the money to the recipient\n   *\n   *  - Transfer the balance of pledges given to \n   *    participants who completed the event\n   *    to the intended recipient and end the event.\n   *  - Mark the event as ended\n   *\n   *  * modifier: `onlyOwner` Only the organiser of this event may call this\n   *  * modifier: `onlyActive` Only events that have not ended\n   */\n  function transferToRecipient() internal {\n    uint256 transferAmount = 0;\n\n    // For each pledge\n    for (uint i = 0; i < pledgeCount; i++) {\n      // Pledge storage thisPledge = pledges[pledgeIndex[i]];\n      Pledge storage thisPledge = pledges[i];\n\n      // If this pledge hasn't been paid yet\n      if (!thisPledge.paid) {\n\n        // If this participant has completed the event\n        address participantAddress = participantsIndex[thisPledge.participantId];\n        if (this.hasCompleted(participantAddress)) {\n          transferAmount += thisPledge.pledgeAmount;\n          thisPledge.paid = true;\n        }\n      }\n    }\n\n    // Also include the signup fee from each participant\n    transferAmount += participantCount * signUpFee;\n\n    // Transfer the total pledges + sign-up fees\n    recipient.recipientAddress.transfer(transferAmount);\n\n    recipientReceivedTotal += transferAmount;\n\n    emit RecipientTransfer(recipient.recipientAddress, transferAmount);\n  }\n\n  /**\n   * @notice Reclaim pledge\n   *\n   * After the event has ended, if the participant did not\n   * complete the event, the sponsor can reclaim the pledge\n   * or send it to the recipient anyway\n   *\n   *  * modifier: `onlyEnded` This event must have passed\n   *  * modifier: `onlyUnclosed` This contract is still open\n   *\n   * @param _returnPledge Should this be returned to the sponsor?\n   */\n  function sponsorReclaim(uint pledgeId, bool _returnPledge) external onlyEnded onlyUnclosed {\n    Pledge storage thisPledge = pledges[pledgeId];\n\n    // This can only be called by the original sponsor\n    require(thisPledge.sponsorAddress == msg.sender, \"pledges can only be reclaimed by the original sponsor\");\n\n    // Only if the pledge hasn't already been paid\n    require(!thisPledge.paid, \"already paid\");\n\n    address participantAddress = participantsIndex[thisPledge.participantId];\n    Participant memory participant = participants[participantAddress];\n\n    // If the participant didn't complete\n    require(!participant.completed, \"participant did not complete\");\n\n    // Mark this pledge as paid\n    thisPledge.paid = true;\n\n    if (_returnPledge) {\n      // Return it to the sponsor\n      thisPledge.sponsorAddress.transfer(thisPledge.pledgeAmount);\n    } else {\n      // Forward to the recipient\n      recipient.recipientAddress.transfer(thisPledge.pledgeAmount);\n    }\n    emit WithdrawEvent(msg.sender, _returnPledge, thisPledge.pledgeAmount);\n  }\n\n  /**\n   * @notice Transfers any outstanding funds and closes the contract\n   *\n   * Any funds remaining in the contract by the time this is called\n   * will be transferred to the recipient regardless of the\n   * participant's completion status\n   * \n   *  * modifier: `onlyEnded` This event must have passed\n   *  * modifier: `onlyUnclosed` This contract is still open\n   */\n  function closeEvent() \n    external\n    onlyOwner\n    onlyEnded\n    onlyUnclosed {\n\n    uint256 finalPayout = getContractBalance();\n    recipient.recipientAddress.transfer(finalPayout);\n    recipientReceivedTotal += finalPayout;\n    emit Closure(finalPayout, recipientReceivedTotal);\n    closed = true;\n  }\n\n  /**\n   * @notice Cancel the event\n   *\n   *  * Transfer all the pledged money back to the sponsors\n   *  * Transfer the sign-up fee back to the participant\n   * \n   *  * modifier: `onlyOwner` Only the organiser of this event may call this\n   *  * modifier: `onlyActive` Only events that have not ended\n   */\n  function cancelEvent() \n    external\n    onlyOwner\n    onlyActive {\n\n    ended = true;\n    cancelled = true;\n\n    // For each pledge\n    for (uint i = 0; i < pledgeCount; i++) {\n      // Pledge storage thisPledge = pledges[pledgeIndex[i]];\n      Pledge memory thisPledge = pledges[i];\n\n      // Only if the pledge hasn't already been paid\n      require(!thisPledge.paid, \"already paid\");\n\n      // Return it to the sponsor\n      thisPledge.sponsorAddress.transfer(thisPledge.pledgeAmount);\n    }\n\n    // For each participant\n    for (uint i = 0; i < participantCount; i++) {\n      address payable _addr = participantsIndex[i];\n      _addr.transfer(signUpFee);\n    }\n\n    emit Cancellation();\n  }\n\n  /* Helper */\n  function isRegistered(address _addr) view external returns(bool) {\n    return participants[_addr].participantAddress != address(0);\n  }\n\n  function hasCompleted(address _addr) view external returns(bool) {\n    return this.isRegistered(_addr) && participants[_addr].completed;\n  }\n\n}",
  "sourcePath": "/Users/madine/Dropbox/work/sponsored-web/contracts/SponsoredEvent.sol",
  "compiler": {
    "name": "solc",
    "version": "0.5.8+commit.23d335f2.Emscripten.clang"
  },
  "schemaVersion": "3.0.16",
  "updatedAt": "2019-11-13T12:59:25.070Z",
  "devdoc": {
    "methods": {
      "constructor": {
        "params": {
          "_eventName": "Public name of the Sponsored Event",
          "_recipientAddress": "where the money goes at the end",
          "_recipientName": "Public name of the Recipient of the funds",
          "_signUpFee": "Fee paid by the participants to join",
          "_target": "Fundraising target"
        }
      },
      "isOwner()": {
        "details": "Returns true if the caller is the current owner."
      },
      "owner()": {
        "details": "Returns the address of the current owner."
      },
      "participantCompleted(address[])": {
        "params": {
          "_participantIds": "Array of participants who have completed the event"
        }
      },
      "pledge(uint256,string)": {
        "params": {
          "_participantId": "Index of the participant in the participantIndex",
          "_sponsorName": "Public name of the sponsor"
        }
      },
      "renounceOwnership()": {
        "details": "Leaves the contract without owner. It will not be possible to call `onlyOwner` functions anymore. Can only be called by the current owner.     * NOTE: Renouncing ownership will leave the contract without an owner, thereby removing any functionality that is only available to the owner."
      },
      "signUpForEvent(string)": {
        "params": {
          "_participantName": "Public name of the event participant"
        }
      },
      "sponsorReclaim(uint256,bool)": {
        "params": {
          "_returnPledge": "Should this be returned to the sponsor?"
        }
      },
      "transferOwnership(address)": {
        "details": "Transfers ownership of the contract to a new account (`newOwner`). Can only be called by the current owner."
      }
    },
    "title": "SponsoredEvent "
  },
  "userdoc": {
    "methods": {
      "cancelEvent()": {
        "notice": "Cancel the event   *  * Transfer all the pledged money back to the sponsors * Transfer the sign-up fee back to the participant    *  * modifier: `onlyOwner` Only the organiser of this event may call this * modifier: `onlyActive` Only events that have not ended"
      },
      "closeEvent()": {
        "notice": "Transfers any outstanding funds and closes the contract   * Any funds remaining in the contract by the time this is called will be transferred to the recipient regardless of the participant's completion status    *  * modifier: `onlyEnded` This event must have passed * modifier: `onlyUnclosed` This contract is still open"
      },
      "constructor": "Creates a SponsoredEvent contract   * Each SponsoredEvent has:   *  - An organiser - A recipient",
      "endEvent()": {
        "notice": "End the event   *  * Transfer valid funds and sign-up fees to recipient * Mark this event as ended   *  * modifier: `onlyOwner` Only the organiser of this event may call this * modifier: `onlyActive` Only events that have not ended"
      },
      "participantCompleted(address[])": {
        "notice": "Mark the participant as having completed the event   * **NOTE: This version doesn't allow partial completion**   *  * modifier: `onlyOwner` Only the organiser of this event may call this * modifier: `onlyActive` Only events that have not ended"
      },
      "pledge(uint256,string)": {
        "notice": "Transfer money from the sponsor to the contract"
      },
      "signUpForEvent(string)": {
        "notice": "Join an event by providing a name and transferring the minimum sign-up fee"
      },
      "sponsorReclaim(uint256,bool)": {
        "notice": "Reclaim pledge   * After the event has ended, if the participant did not complete the event, the sponsor can reclaim the pledge or send it to the recipient anyway   *  * modifier: `onlyEnded` This event must have passed * modifier: `onlyUnclosed` This contract is still open"
      }
    }
  }
}